INVUFPUK         UFPUK         UFP (UK) Limited              Nick Gabe                     ngabe@ufpuk.com                                   01274651845                  ECON_106082   BECHTLE LTD                   UFPGB_DTA 7333665001    D00106082250113181045740  020250113181045+0000SALCON    2.0  Bridge/Open                                                                                                                                                                                                                                                                                                                                                                                                                                                                                                                                                                                                                                                                                                                                                                                                                                                                                                                                                                                                                                                                                                                                                                                                                                                                          
ORH733366500100000202501134517667747  03961543       9000654614                                                  NEXT DAY                      Next Day                                                                                                                                              CON20250113UFPUK                       UFP (UK) Limited                                            Enterprise House              Roydsdale Way                 Bradford            BD4 6SE     GB  GB607254160                                      00106082      BECHTLE LTD                                                 TURNPIKE HOUSE                METHUEN PARK                  CHIPPENHAM WILTS    SN14 0GF                                                                      GB699374267    03283032                          37617         Bristol Port Company          Jack Howarth - BPC318731      Saint Andrews House                                         Avonmouth           BS11 9DQ        GB699374267            00000000N                              0                                           000000000041044 000000000008209 000000000049253 4517667747                                                                     00                                                                                                                                                                                                                                                                                                                         
ORL7333665001000000000000200000000190780321348 HPCF252XM     4131845       MFP M377 M452 M477            000000000000100 000000000000000 20250116000000000041044 000000100 S011  02000      000000000041044 One Piece                     0000000000041044                                                            00200      1                                                                                     4131845                                                                                                                                                                                                                                                                                                                                                                                                                                                                                                                                                                                                                                                                                                                                                                                                                                                                                                                                                                                                                                                                                                                                                                  
ORT733366500100000     00210Jack Howarth - BPC318731                                                                                                                                                                                                                                                                                                                                                                                                                                                                                                                                                                                                                                                                                                                                                                                                                                                                                                                                                                                                                                                                                                                                                                                                                                                                                                                                                                                                                                                                                                                                            
